{
  "contractName": "Marketplace",
  "abi": [
    {
      "inputs": [
        {
          "internalType": "address",
          "name": "_izinNft",
          "type": "address"
        }
      ],
      "stateMutability": "nonpayable",
      "type": "constructor"
    },
    {
      "inputs": [],
      "name": "izineyNft",
      "outputs": [
        {
          "internalType": "address",
          "name": "",
          "type": "address"
        }
      ],
      "stateMutability": "view",
      "type": "function",
      "constant": true
    },
    {
      "inputs": [],
      "name": "izineyToken",
      "outputs": [
        {
          "internalType": "address",
          "name": "",
          "type": "address"
        }
      ],
      "stateMutability": "view",
      "type": "function",
      "constant": true
    },
    {
      "inputs": [],
      "name": "listing_count",
      "outputs": [
        {
          "internalType": "uint256",
          "name": "",
          "type": "uint256"
        }
      ],
      "stateMutability": "view",
      "type": "function",
      "constant": true
    },
    {
      "inputs": [
        {
          "internalType": "uint256",
          "name": "",
          "type": "uint256"
        }
      ],
      "name": "listings",
      "outputs": [
        {
          "internalType": "address",
          "name": "owner",
          "type": "address"
        },
        {
          "internalType": "bool",
          "name": "is_active",
          "type": "bool"
        },
        {
          "internalType": "uint256",
          "name": "token_id",
          "type": "uint256"
        },
        {
          "internalType": "uint256",
          "name": "price",
          "type": "uint256"
        }
      ],
      "stateMutability": "view",
      "type": "function",
      "constant": true
    },
    {
      "inputs": [
        {
          "internalType": "uint256",
          "name": "token_id",
          "type": "uint256"
        },
        {
          "internalType": "uint256",
          "name": "price",
          "type": "uint256"
        }
      ],
      "name": "addListing",
      "outputs": [],
      "stateMutability": "nonpayable",
      "type": "function"
    },
    {
      "inputs": [
        {
          "internalType": "uint256",
          "name": "listing_id",
          "type": "uint256"
        }
      ],
      "name": "removeListing",
      "outputs": [],
      "stateMutability": "nonpayable",
      "type": "function"
    },
    {
      "inputs": [
        {
          "internalType": "uint256",
          "name": "listing_id",
          "type": "uint256"
        }
      ],
      "name": "buy",
      "outputs": [],
      "stateMutability": "nonpayable",
      "type": "function"
    },
    {
      "inputs": [
        {
          "internalType": "uint256",
          "name": "index",
          "type": "uint256"
        }
      ],
      "name": "getActiveListings",
      "outputs": [
        {
          "internalType": "uint256",
          "name": "",
          "type": "uint256"
        }
      ],
      "stateMutability": "view",
      "type": "function",
      "constant": true
    },
    {
      "inputs": [
        {
          "internalType": "address",
          "name": "owner",
          "type": "address"
        },
        {
          "internalType": "uint256",
          "name": "index",
          "type": "uint256"
        }
      ],
      "name": "getListingsByOwner",
      "outputs": [
        {
          "internalType": "uint256",
          "name": "",
          "type": "uint256"
        }
      ],
      "stateMutability": "view",
      "type": "function",
      "constant": true
    },
    {
      "inputs": [
        {
          "internalType": "address",
          "name": "owner",
          "type": "address"
        }
      ],
      "name": "getListingsByOwnerCount",
      "outputs": [
        {
          "internalType": "uint256",
          "name": "",
          "type": "uint256"
        }
      ],
      "stateMutability": "view",
      "type": "function",
      "constant": true
    },
    {
      "inputs": [],
      "name": "getActiveListingsCount",
      "outputs": [
        {
          "internalType": "uint256",
          "name": "",
          "type": "uint256"
        }
      ],
      "stateMutability": "view",
      "type": "function",
      "constant": true
    }
  ],
  "bytecode": "0x60806040526000600155732db29c99f5f59293f933f7317760124af1937ef3600360006101000a81548173ffffffffffffffffffffffffffffffffffffffff021916908373ffffffffffffffffffffffffffffffffffffffff160217905550600260009054906101000a900473ffffffffffffffffffffffffffffffffffffffff16600560006101000a81548173ffffffffffffffffffffffffffffffffffffffff021916908373ffffffffffffffffffffffffffffffffffffffff160217905550600360009054906101000a900473ffffffffffffffffffffffffffffffffffffffff16600660006101000a81548173ffffffffffffffffffffffffffffffffffffffff021916908373ffffffffffffffffffffffffffffffffffffffff1602179055503480156200013157600080fd5b506040516200143c3803806200143c833981810160405281019062000157919062000211565b600160008190555080600260006101000a81548173ffffffffffffffffffffffffffffffffffffffff021916908373ffffffffffffffffffffffffffffffffffffffff1602179055505062000243565b600080fd5b600073ffffffffffffffffffffffffffffffffffffffff82169050919050565b6000620001d982620001ac565b9050919050565b620001eb81620001cc565b8114620001f757600080fd5b50565b6000815190506200020b81620001e0565b92915050565b6000602082840312156200022a5762000229620001a7565b5b60006200023a84828501620001fa565b91505092915050565b6111e980620002536000396000f3fe608060405234801561001057600080fd5b50600436106100a95760003560e01c806393135814116100715780639313581414610152578063a4dae28614610170578063ce2b8053146101a0578063d96a094a146101be578063de74e57b146101da578063e69875011461020d576100a9565b8063479ad4c3146100ae5780635dcd4015146100ca5780637b55927c146100e85780637c499bfa14610106578063836cf6e914610136575b600080fd5b6100c860048036038101906100c39190610ca8565b61023d565b005b6100d2610473565b6040516100df9190610ce4565b60405180910390f35b6100f0610479565b6040516100fd9190610ce4565b60405180910390f35b610120600480360381019061011b9190610d5d565b6104dd565b60405161012d9190610ce4565b60405180910390f35b610150600480360381019061014b9190610d9d565b6105c5565b005b61015a610798565b6040516101679190610dec565b60405180910390f35b61018a60048036038101906101859190610e07565b6107be565b6040516101979190610ce4565b60405180910390f35b6101a8610891565b6040516101b59190610dec565b60405180910390f35b6101d860048036038101906101d39190610ca8565b6108b7565b005b6101f460048036038101906101ef9190610ca8565b610b38565b6040516102049493929190610e4f565b60405180910390f35b61022760048036038101906102229190610ca8565b610b95565b6040516102349190610ce4565b60405180910390f35b60026000541415610283576040517f08c379a000000000000000000000000000000000000000000000000000000000815260040161027a90610ef1565b60405180910390fd5b60026000819055503373ffffffffffffffffffffffffffffffffffffffff166004600083815260200190815260200160002060000160009054906101000a900473ffffffffffffffffffffffffffffffffffffffff1673ffffffffffffffffffffffffffffffffffffffff161461032f576040517f08c379a000000000000000000000000000000000000000000000000000000000815260040161032690610f5d565b60405180910390fd5b6004600082815260200190815260200160002060000160149054906101000a900460ff16610392576040517f08c379a000000000000000000000000000000000000000000000000000000000815260040161038990610fc9565b60405180910390fd5b60006004600083815260200190815260200160002060000160146101000a81548160ff021916908315150217905550600560009054906101000a900473ffffffffffffffffffffffffffffffffffffffff1673ffffffffffffffffffffffffffffffffffffffff166323b872dd303360046000868152602001908152602001600020600101546040518463ffffffff1660e01b815260040161043693929190610fe9565b600060405180830381600087803b15801561045057600080fd5b505af1158015610464573d6000803e3d6000fd5b50505050600160008190555050565b60015481565b60008060005b6001548110156104d5576004600082815260200190815260200160002060000160149054906101000a900460ff16156104c2576001826104bf919061104f565b91505b80806104cd906110a5565b91505061047f565b508091505090565b60008060005b6001548110156105b8576004600082815260200190815260200160002060000160149054906101000a900460ff16801561057e57508473ffffffffffffffffffffffffffffffffffffffff166004600083815260200190815260200160002060000160009054906101000a900473ffffffffffffffffffffffffffffffffffffffff1673ffffffffffffffffffffffffffffffffffffffff16145b156105a557818414156105955780925050506105bf565b6001826105a2919061104f565b91505b80806105b0906110a5565b9150506104e3565b5060009150505b92915050565b6002600054141561060b576040517f08c379a000000000000000000000000000000000000000000000000000000000815260040161060290610ef1565b60405180910390fd5b600260008190555060405180608001604052803373ffffffffffffffffffffffffffffffffffffffff1681526020016001151581526020018381526020018281525060046000600154815260200190815260200160002060008201518160000160006101000a81548173ffffffffffffffffffffffffffffffffffffffff021916908373ffffffffffffffffffffffffffffffffffffffff16021790555060208201518160000160146101000a81548160ff02191690831515021790555060408201518160010155606082015181600201559050506106f560018054610c0f90919063ffffffff16565b600181905550600560009054906101000a900473ffffffffffffffffffffffffffffffffffffffff1673ffffffffffffffffffffffffffffffffffffffff166323b872dd3330856040518463ffffffff1660e01b815260040161075a93929190610fe9565b600060405180830381600087803b15801561077457600080fd5b505af1158015610788573d6000803e3d6000fd5b5050505060016000819055505050565b600360009054906101000a900473ffffffffffffffffffffffffffffffffffffffff1681565b60008060005b600154811015610887576004600082815260200190815260200160002060000160149054906101000a900460ff16801561085f57508373ffffffffffffffffffffffffffffffffffffffff166004600083815260200190815260200160002060000160009054906101000a900473ffffffffffffffffffffffffffffffffffffffff1673ffffffffffffffffffffffffffffffffffffffff16145b1561087457600182610871919061104f565b91505b808061087f906110a5565b9150506107c4565b5080915050919050565b600260009054906101000a900473ffffffffffffffffffffffffffffffffffffffff1681565b600260005414156108fd576040517f08c379a00000000000000000000000000000000000000000000000000000000081526004016108f490610ef1565b60405180910390fd5b60026000819055506004600082815260200190815260200160002060000160149054906101000a900460ff16610968576040517f08c379a000000000000000000000000000000000000000000000000000000000815260040161095f90610fc9565b60405180910390fd5b60006004600083815260200190815260200160002060000160146101000a81548160ff021916908315150217905550600660009054906101000a900473ffffffffffffffffffffffffffffffffffffffff1673ffffffffffffffffffffffffffffffffffffffff166323b872dd336004600085815260200190815260200160002060000160009054906101000a900473ffffffffffffffffffffffffffffffffffffffff1660046000868152602001908152602001600020600201546040518463ffffffff1660e01b8152600401610a4293929190610fe9565b6020604051808303816000875af1158015610a61573d6000803e3d6000fd5b505050506040513d601f19601f82011682018060405250810190610a85919061111a565b50600560009054906101000a900473ffffffffffffffffffffffffffffffffffffffff1673ffffffffffffffffffffffffffffffffffffffff166323b872dd303360046000868152602001908152602001600020600101546040518463ffffffff1660e01b8152600401610afb93929190610fe9565b600060405180830381600087803b158015610b1557600080fd5b505af1158015610b29573d6000803e3d6000fd5b50505050600160008190555050565b60046020528060005260406000206000915090508060000160009054906101000a900473ffffffffffffffffffffffffffffffffffffffff16908060000160149054906101000a900460ff16908060010154908060020154905084565b60008060005b600154811015610c03576004600082815260200190815260200160002060000160149054906101000a900460ff1615610bf05781841415610be0578092505050610c0a565b600182610bed919061104f565b91505b8080610bfb906110a5565b915050610b9b565b5060009150505b919050565b6000808284610c1e919061104f565b905083811015610c63576040517f08c379a0000000000000000000000000000000000000000000000000000000008152600401610c5a90611193565b60405180910390fd5b8091505092915050565b600080fd5b6000819050919050565b610c8581610c72565b8114610c9057600080fd5b50565b600081359050610ca281610c7c565b92915050565b600060208284031215610cbe57610cbd610c6d565b5b6000610ccc84828501610c93565b91505092915050565b610cde81610c72565b82525050565b6000602082019050610cf96000830184610cd5565b92915050565b600073ffffffffffffffffffffffffffffffffffffffff82169050919050565b6000610d2a82610cff565b9050919050565b610d3a81610d1f565b8114610d4557600080fd5b50565b600081359050610d5781610d31565b92915050565b60008060408385031215610d7457610d73610c6d565b5b6000610d8285828601610d48565b9250506020610d9385828601610c93565b9150509250929050565b60008060408385031215610db457610db3610c6d565b5b6000610dc285828601610c93565b9250506020610dd385828601610c93565b9150509250929050565b610de681610d1f565b82525050565b6000602082019050610e016000830184610ddd565b92915050565b600060208284031215610e1d57610e1c610c6d565b5b6000610e2b84828501610d48565b91505092915050565b60008115159050919050565b610e4981610e34565b82525050565b6000608082019050610e646000830187610ddd565b610e716020830186610e40565b610e7e6040830185610cd5565b610e8b6060830184610cd5565b95945050505050565b600082825260208201905092915050565b7f5265656e7472616e637947756172643a207265656e7472616e742063616c6c00600082015250565b6000610edb601f83610e94565b9150610ee682610ea5565b602082019050919050565b60006020820190508181036000830152610f0a81610ece565b9050919050565b7f4d757374206265206f776e657200000000000000000000000000000000000000600082015250565b6000610f47600d83610e94565b9150610f5282610f11565b602082019050919050565b60006020820190508181036000830152610f7681610f3a565b9050919050565b7f4d75737420626520616374697665000000000000000000000000000000000000600082015250565b6000610fb3600e83610e94565b9150610fbe82610f7d565b602082019050919050565b60006020820190508181036000830152610fe281610fa6565b9050919050565b6000606082019050610ffe6000830186610ddd565b61100b6020830185610ddd565b6110186040830184610cd5565b949350505050565b7f4e487b7100000000000000000000000000000000000000000000000000000000600052601160045260246000fd5b600061105a82610c72565b915061106583610c72565b9250827fffffffffffffffffffffffffffffffffffffffffffffffffffffffffffffffff0382111561109a57611099611020565b5b828201905092915050565b60006110b082610c72565b91507fffffffffffffffffffffffffffffffffffffffffffffffffffffffffffffffff8214156110e3576110e2611020565b5b600182019050919050565b6110f781610e34565b811461110257600080fd5b50565b600081519050611114816110ee565b92915050565b6000602082840312156111305761112f610c6d565b5b600061113e84828501611105565b91505092915050565b7f536166656d6174683a206164646974696f6e206f766572666c6f770000000000600082015250565b600061117d601b83610e94565b915061118882611147565b602082019050919050565b600060208201905081810360008301526111ac81611170565b905091905056fea2646970667358221220c7e16bbee8103a05c2286113ab14f96a0884f67c509b960a0aa5d8d3b336af2e64736f6c634300080a0033",
  "immutableReferences": {},
  "source": "// SPDX-License-Identifier: GPLv3\r\n// Developed by: @joevidev\r\n// v1.0.0\r\npragma solidity ^0.8.10;\r\n\r\nimport \"@openzeppelin/contracts/token/ERC20/ERC20.sol\";\r\nimport \"@openzeppelin/contracts/security/ReentrancyGuard.sol\";\r\nimport './ERC721Connector.sol';\r\nimport './libraries/Counters.sol';\r\n\r\nstruct Listing\r\n{\r\n  address owner;\r\n  bool is_active;\r\n  uint256 token_id;\r\n  uint256 price;\r\n}\r\n\r\ncontract Marketplace is ReentrancyGuard  {\r\n  using SafeMath for uint256;\r\n\r\n  uint256 public listing_count = 0;\r\n  address public izineyNft;\r\n  address public izineyToken = 0x2db29c99f5F59293F933f7317760124AF1937eF3;\r\n  mapping (uint256 => Listing) public listings;\r\n\r\n   constructor(address _izinNft) {\r\n        izineyNft = _izinNft;\r\n    }\r\n\r\n  ERC721 erc721_contract = ERC721(izineyNft);\r\n  ERC20 erc20_contract = ERC20(izineyToken);\r\n\r\n  function addListing(uint256 token_id, uint256 price) public nonReentrant\r\n  {\r\n    listings[listing_count] = Listing(msg.sender, true, token_id, price);\r\n    listing_count = listing_count.add(1);\r\n    erc721_contract.transferFrom(msg.sender, address(this), token_id);\r\n  }\r\n\r\n  function removeListing(uint256 listing_id) public nonReentrant\r\n  {\r\n    require(listings[listing_id].owner == msg.sender, \"Must be owner\");\r\n    require(listings[listing_id].is_active, \"Must be active\");\r\n    listings[listing_id].is_active = false;\r\n    erc721_contract.transferFrom(address(this), msg.sender, listings[listing_id].token_id);\r\n  }\r\n\r\n  function buy(uint256 listing_id) public nonReentrant\r\n  {\r\n    require(listings[listing_id].is_active, \"Must be active\");\r\n    listings[listing_id].is_active = false;\r\n    erc20_contract.transferFrom(msg.sender, listings[listing_id].owner, listings[listing_id].price);\r\n    erc721_contract.transferFrom(address(this), msg.sender, listings[listing_id].token_id);\r\n  }\r\n\r\n  function getActiveListings(uint256 index) public view returns(uint256)\r\n  {\r\n    uint256 j;\r\n    for(uint256 i=0; i<listing_count; i++)\r\n    {\r\n      if(listings[i].is_active)\r\n      {\r\n        if(index == j)\r\n        {\r\n          return i;\r\n        }\r\n        j+=1;\r\n      }\r\n    }\r\n    return 0;\r\n  }\r\n\r\n  function getListingsByOwner(address owner, uint256 index) public view returns(uint256)\r\n  {\r\n    uint256 j;\r\n    for(uint256 i=0; i<listing_count; i++)\r\n    {\r\n      if(listings[i].is_active && listings[i].owner == owner)\r\n      {\r\n        if(index == j)\r\n        {\r\n          return i;\r\n        }\r\n        j+=1;\r\n      }\r\n    }\r\n    return 0;\r\n  }\r\n\r\n  function getListingsByOwnerCount(address owner) public view returns(uint256)\r\n  {\r\n    uint256 result;\r\n    for(uint256 i=0; i<listing_count; i++)\r\n    {\r\n      if(listings[i].is_active && listings[i].owner == owner)\r\n      {\r\n        result+=1;\r\n      }\r\n    }\r\n    return result;\r\n  }\r\n\r\n  function getActiveListingsCount() public view returns(uint256)\r\n  {\r\n    uint result;\r\n    for(uint i=0; i<listing_count; i++)\r\n    {\r\n      if(listings[i].is_active)\r\n      {\r\n        result+=1;\r\n      }\r\n    }\r\n    return result;\r\n  }\r\n}",
  "sourcePath": "/home/timana/unix-projects/EVM/portfolio/nftMarketplaceDapp/izineynftmarket/src/contracts/Marketplace.sol",
  "compiler": {
    "name": "solc",
    "version": "0.8.10+commit.fc410830.Emscripten.clang"
  },
  "schemaVersion": "3.4.8",
  "updatedAt": "2022-08-12T13:33:49.195Z",
  "networkType": "ethereum",
  "devdoc": {
    "kind": "dev",
    "methods": {},
    "version": 1
  },
  "userdoc": {
    "kind": "user",
    "methods": {},
    "version": 1
  }
}